{
  "contractName": "work",
  "abi": [
    {
      "inputs": [],
      "stateMutability": "nonpayable",
      "type": "constructor"
    },
    {
      "anonymous": false,
      "inputs": [
        {
          "indexed": false,
          "internalType": "uint256",
          "name": "id",
          "type": "uint256"
        },
        {
          "indexed": false,
          "internalType": "string",
          "name": "ngoname",
          "type": "string"
        },
        {
          "indexed": false,
          "internalType": "address payable",
          "name": "owner",
          "type": "address"
        },
        {
          "indexed": false,
          "internalType": "uint256",
          "name": "amount",
          "type": "uint256"
        },
        {
          "indexed": false,
          "internalType": "bool",
          "name": "donation",
          "type": "bool"
        }
      ],
      "name": "productcreated",
      "type": "event"
    },
    {
      "inputs": [],
      "name": "name",
      "outputs": [
        {
          "internalType": "string",
          "name": "",
          "type": "string"
        }
      ],
      "stateMutability": "view",
      "type": "function",
      "constant": true
    },
    {
      "inputs": [],
      "name": "pcount",
      "outputs": [
        {
          "internalType": "uint256",
          "name": "",
          "type": "uint256"
        }
      ],
      "stateMutability": "view",
      "type": "function",
      "constant": true
    },
    {
      "inputs": [
        {
          "internalType": "uint256",
          "name": "",
          "type": "uint256"
        }
      ],
      "name": "req",
      "outputs": [
        {
          "internalType": "uint256",
          "name": "id",
          "type": "uint256"
        },
        {
          "internalType": "string",
          "name": "ngoname",
          "type": "string"
        },
        {
          "internalType": "address",
          "name": "owner",
          "type": "address"
        },
        {
          "internalType": "uint256",
          "name": "amount",
          "type": "uint256"
        },
        {
          "internalType": "bool",
          "name": "donation",
          "type": "bool"
        }
      ],
      "stateMutability": "view",
      "type": "function",
      "constant": true
    },
    {
      "inputs": [
        {
          "internalType": "uint256",
          "name": "_amount",
          "type": "uint256"
        },
        {
          "internalType": "string",
          "name": "_name",
          "type": "string"
        }
      ],
      "name": "create",
      "outputs": [],
      "stateMutability": "nonpayable",
      "type": "function"
    },
    {
      "inputs": [
        {
          "internalType": "uint256",
          "name": "_id",
          "type": "uint256"
        }
      ],
      "name": "viewinfo",
      "outputs": [
        {
          "internalType": "string",
          "name": "nameOfNGO",
          "type": "string"
        },
        {
          "internalType": "uint256",
          "name": "donationRequired",
          "type": "uint256"
        },
        {
          "internalType": "address",
          "name": "ownerOfNGO",
          "type": "address"
        }
      ],
      "stateMutability": "view",
      "type": "function",
      "constant": true
    },
    {
      "inputs": [
        {
          "internalType": "uint256",
          "name": "_id",
          "type": "uint256"
        }
      ],
      "name": "donate",
      "outputs": [],
      "stateMutability": "payable",
      "type": "function",
      "payable": true
    }
  ],
  "bytecode": "0x608060405260006001553480156200001657600080fd5b506040518060400160405280601281526020017f616268697368656b27732070726f6a656374000000000000000000000000000081525060009080519060200190620000649291906200006b565b5062000180565b82805462000079906200014a565b90600052602060002090601f0160209004810192826200009d5760008555620000e9565b82601f10620000b857805160ff1916838001178555620000e9565b82800160010185558215620000e9579182015b82811115620000e8578251825591602001919060010190620000cb565b5b509050620000f89190620000fc565b5090565b5b8082111562000117576000816000905550600101620000fd565b5090565b7f4e487b7100000000000000000000000000000000000000000000000000000000600052602260045260246000fd5b600060028204905060018216806200016357607f821691505b602082108114156200017a57620001796200011b565b5b50919050565b610db080620001906000396000f3fe6080604052600436106100555760003560e01c80630118fa491461005a57806306fdde031461008357806309c9c67b146100ae5780631ab2cf21146100ed578063b7bb296714610118578063f14faf6f14610159575b600080fd5b34801561006657600080fd5b50610081600480360381019061007c91906109e4565b610175565b005b34801561008f57600080fd5b506100986102d4565b6040516100a59190610ac8565b60405180910390f35b3480156100ba57600080fd5b506100d560048036038101906100d09190610aea565b610362565b6040516100e493929190610b67565b60405180910390f35b3480156100f957600080fd5b50610102610461565b60405161010f9190610ba5565b60405180910390f35b34801561012457600080fd5b5061013f600480360381019061013a9190610aea565b610467565b604051610150959493929190610bdb565b60405180910390f35b610173600480360381019061016e9190610aea565b610552565b005b60008151116101b9576040517f08c379a00000000000000000000000000000000000000000000000000000000081526004016101b090610c81565b60405180910390fd5b600082116101c657600080fd5b600160008154809291906101d990610cd0565b91905055506040518060a0016040528060015481526020018281526020013373ffffffffffffffffffffffffffffffffffffffff1681526020018381526020016000151581525060026000600154815260200190815260200160002060008201518160000155602082015181600101908051906020019061025b9291906107b1565b5060408201518160020160006101000a81548173ffffffffffffffffffffffffffffffffffffffff021916908373ffffffffffffffffffffffffffffffffffffffff1602179055506060820151816003015560808201518160040160006101000a81548160ff0219169083151502179055509050505050565b600080546102e190610d48565b80601f016020809104026020016040519081016040528092919081815260200182805461030d90610d48565b801561035a5780601f1061032f5761010080835404028352916020019161035a565b820191906000526020600020905b81548152906001019060200180831161033d57829003601f168201915b505050505081565b606060008060026000858152602001908152602001600020600101805461038890610d48565b80601f01602080910402602001604051908101604052809291908181526020018280546103b490610d48565b80156104015780601f106103d657610100808354040283529160200191610401565b820191906000526020600020905b8154815290600101906020018083116103e457829003601f168201915b50505050509250600260008581526020019081526020016000206003015491506002600085815260200190815260200160002060020160009054906101000a900473ffffffffffffffffffffffffffffffffffffffff1690509193909250565b60015481565b600260205280600052604060002060009150905080600001549080600101805461049090610d48565b80601f01602080910402602001604051908101604052809291908181526020018280546104bc90610d48565b80156105095780601f106104de57610100808354040283529160200191610509565b820191906000526020600020905b8154815290600101906020018083116104ec57829003601f168201915b5050505050908060020160009054906101000a900473ffffffffffffffffffffffffffffffffffffffff16908060030154908060040160009054906101000a900460ff16905085565b6000600260008381526020019081526020016000206040518060a00160405290816000820154815260200160018201805461058c90610d48565b80601f01602080910402602001604051908101604052809291908181526020018280546105b890610d48565b80156106055780601f106105da57610100808354040283529160200191610605565b820191906000526020600020905b8154815290600101906020018083116105e857829003601f168201915b505050505081526020016002820160009054906101000a900473ffffffffffffffffffffffffffffffffffffffff1673ffffffffffffffffffffffffffffffffffffffff1673ffffffffffffffffffffffffffffffffffffffff168152602001600382015481526020016004820160009054906101000a900460ff1615151515815250509050806060015134101561069c57600080fd5b600081604001519050600182608001901515908115158152505081600260008581526020019081526020016000206000820151816000015560208201518160010190805190602001906106f09291906107b1565b5060408201518160020160006101000a81548173ffffffffffffffffffffffffffffffffffffffff021916908373ffffffffffffffffffffffffffffffffffffffff1602179055506060820151816003015560808201518160040160006101000a81548160ff0219169083151502179055509050508073ffffffffffffffffffffffffffffffffffffffff166108fc349081150290604051600060405180830381858888f193505050501580156107ab573d6000803e3d6000fd5b50505050565b8280546107bd90610d48565b90600052602060002090601f0160209004810192826107df5760008555610826565b82601f106107f857805160ff1916838001178555610826565b82800160010185558215610826579182015b8281111561082557825182559160200191906001019061080a565b5b5090506108339190610837565b5090565b5b80821115610850576000816000905550600101610838565b5090565b6000604051905090565b600080fd5b600080fd5b6000819050919050565b61087b81610868565b811461088657600080fd5b50565b60008135905061089881610872565b92915050565b600080fd5b600080fd5b6000601f19601f8301169050919050565b7f4e487b7100000000000000000000000000000000000000000000000000000000600052604160045260246000fd5b6108f1826108a8565b810181811067ffffffffffffffff821117156109105761090f6108b9565b5b80604052505050565b6000610923610854565b905061092f82826108e8565b919050565b600067ffffffffffffffff82111561094f5761094e6108b9565b5b610958826108a8565b9050602081019050919050565b82818337600083830152505050565b600061098761098284610934565b610919565b9050828152602081018484840111156109a3576109a26108a3565b5b6109ae848285610965565b509392505050565b600082601f8301126109cb576109ca61089e565b5b81356109db848260208601610974565b91505092915050565b600080604083850312156109fb576109fa61085e565b5b6000610a0985828601610889565b925050602083013567ffffffffffffffff811115610a2a57610a29610863565b5b610a36858286016109b6565b9150509250929050565b600081519050919050565b600082825260208201905092915050565b60005b83811015610a7a578082015181840152602081019050610a5f565b83811115610a89576000848401525b50505050565b6000610a9a82610a40565b610aa48185610a4b565b9350610ab4818560208601610a5c565b610abd816108a8565b840191505092915050565b60006020820190508181036000830152610ae28184610a8f565b905092915050565b600060208284031215610b0057610aff61085e565b5b6000610b0e84828501610889565b91505092915050565b610b2081610868565b82525050565b600073ffffffffffffffffffffffffffffffffffffffff82169050919050565b6000610b5182610b26565b9050919050565b610b6181610b46565b82525050565b60006060820190508181036000830152610b818186610a8f565b9050610b906020830185610b17565b610b9d6040830184610b58565b949350505050565b6000602082019050610bba6000830184610b17565b92915050565b60008115159050919050565b610bd581610bc0565b82525050565b600060a082019050610bf06000830188610b17565b8181036020830152610c028187610a8f565b9050610c116040830186610b58565b610c1e6060830185610b17565b610c2b6080830184610bcc565b9695505050505050565b7f456e7465722061206e616d650000000000000000000000000000000000000000600082015250565b6000610c6b600c83610a4b565b9150610c7682610c35565b602082019050919050565b60006020820190508181036000830152610c9a81610c5e565b9050919050565b7f4e487b7100000000000000000000000000000000000000000000000000000000600052601160045260246000fd5b6000610cdb82610868565b91507fffffffffffffffffffffffffffffffffffffffffffffffffffffffffffffffff821415610d0e57610d0d610ca1565b5b600182019050919050565b7f4e487b7100000000000000000000000000000000000000000000000000000000600052602260045260246000fd5b60006002820490506001821680610d6057607f821691505b60208210811415610d7457610d73610d19565b5b5091905056fea2646970667358221220f662f7d2d0e0e211fd5f10d33bf2c39ad5d2e44a3b8196e23227af51b6e336ac64736f6c634300080b0033",
  "immutableReferences": {},
  "source": "pragma solidity ^0.8.11;\n\ncontract work {\n\n    string public name;\n    constructor(){\n        name = \"abhishek's project\";\n    }\n\n    uint public pcount = 0;\n    \n    struct ngo{\n        uint id;\n        string ngoname;\n        address owner;\n        uint amount;\n        bool donation;\n    }\n\n    event productcreated(\n        uint id,\n        string ngoname,\n        address payable owner,\n        uint amount,\n        bool donation\n    );\n\n    mapping(uint=>ngo) public req;\n\n    function create(uint _amount,string memory _name) public {\n        \n        require(bytes(_name).length > 0,'Enter a name');\n        require(_amount >0);\n        pcount++;\n\n        req[pcount] = ngo(pcount,_name,msg.sender,_amount,false);\n      \n    }\n\n    function viewinfo(uint _id) public view returns(string memory nameOfNGO,uint donationRequired,address ownerOfNGO){\n        nameOfNGO = req[_id].ngoname;\n\n        donationRequired = req[_id].amount;\n        ownerOfNGO = req[_id].owner;\n    }\n\n    function donate(uint _id) public payable{\n        ngo memory _new = req[_id];\n\n        require(msg.value >= _new.amount);\n\n        address _ngo = _new.owner;\n\n        _new.donation = true;\n        \n        req[_id] = _new;\n        payable(address(_ngo)).transfer(msg.value);\n\n\n    }\n\n}",
  "sourcePath": "D:\\New folder (3)\\marketplace-master\\src\\contracts\\work.sol",
  "compiler": {
    "name": "solc",
    "version": "0.8.11+commit.d7f03943.Emscripten.clang"
  },
  "schemaVersion": "3.4.5",
  "updatedAt": "2022-05-25T03:49:42.694Z",
  "networkType": "ethereum",
  "devdoc": {
    "kind": "dev",
    "methods": {},
    "version": 1
  },
  "userdoc": {
    "kind": "user",
    "methods": {},
    "version": 1
  }
}