{
  "contractName": "work",
  "abi": [
    {
      "inputs": [],
      "stateMutability": "nonpayable",
      "type": "constructor"
    },
    {
      "inputs": [],
      "name": "name",
      "outputs": [
        {
          "internalType": "string",
          "name": "",
          "type": "string"
        }
      ],
      "stateMutability": "view",
      "type": "function",
      "constant": true
    },
    {
      "inputs": [
        {
          "internalType": "uint256",
          "name": "",
          "type": "uint256"
        }
      ],
      "name": "ngolist",
      "outputs": [
        {
          "internalType": "uint256",
          "name": "id",
          "type": "uint256"
        },
        {
          "internalType": "string",
          "name": "web",
          "type": "string"
        },
        {
          "internalType": "string",
          "name": "ngoname",
          "type": "string"
        },
        {
          "internalType": "address",
          "name": "owner",
          "type": "address"
        },
        {
          "internalType": "uint256",
          "name": "amount",
          "type": "uint256"
        },
        {
          "internalType": "uint256",
          "name": "donated",
          "type": "uint256"
        },
        {
          "internalType": "bool",
          "name": "donation",
          "type": "bool"
        }
      ],
      "stateMutability": "view",
      "type": "function",
      "constant": true
    },
    {
      "inputs": [],
      "name": "pcount",
      "outputs": [
        {
          "internalType": "uint256",
          "name": "",
          "type": "uint256"
        }
      ],
      "stateMutability": "view",
      "type": "function",
      "constant": true
    },
    {
      "inputs": [
        {
          "internalType": "uint256",
          "name": "_amount",
          "type": "uint256"
        },
        {
          "internalType": "string",
          "name": "_name",
          "type": "string"
        },
        {
          "internalType": "string",
          "name": "_web",
          "type": "string"
        }
      ],
      "name": "create",
      "outputs": [],
      "stateMutability": "nonpayable",
      "type": "function"
    },
    {
      "inputs": [],
      "name": "getcount",
      "outputs": [
        {
          "internalType": "uint256",
          "name": "",
          "type": "uint256"
        }
      ],
      "stateMutability": "view",
      "type": "function",
      "constant": true
    },
    {
      "inputs": [
        {
          "internalType": "uint256",
          "name": "_id",
          "type": "uint256"
        }
      ],
      "name": "getdata",
      "outputs": [
        {
          "components": [
            {
              "internalType": "uint256",
              "name": "id",
              "type": "uint256"
            },
            {
              "internalType": "string",
              "name": "web",
              "type": "string"
            },
            {
              "internalType": "string",
              "name": "ngoname",
              "type": "string"
            },
            {
              "internalType": "address",
              "name": "owner",
              "type": "address"
            },
            {
              "internalType": "uint256",
              "name": "amount",
              "type": "uint256"
            },
            {
              "internalType": "uint256",
              "name": "donated",
              "type": "uint256"
            },
            {
              "internalType": "bool",
              "name": "donation",
              "type": "bool"
            }
          ],
          "internalType": "struct work.ngo",
          "name": "",
          "type": "tuple"
        }
      ],
      "stateMutability": "view",
      "type": "function",
      "constant": true
    },
    {
      "inputs": [
        {
          "internalType": "uint256",
          "name": "_id",
          "type": "uint256"
        }
      ],
      "name": "donate",
      "outputs": [],
      "stateMutability": "payable",
      "type": "function",
      "payable": true
    }
  ],
  "bytecode": "0x608060405260006001553480156200001657600080fd5b506040518060400160405280601281526020017f616268697368656b27732070726f6a656374000000000000000000000000000081525060009080519060200190620000649291906200047f565b50620000e360076040518060400160405280600b81526020017f5072617468616d204e474f0000000000000000000000000000000000000000008152506040518060400160405280600f81526020017f7777772e7072617468616d2e6f72670000000000000000000000000000000000815250620002e160201b60201c565b62000161600a6040518060400160405280600781526020017f48656c70416765000000000000000000000000000000000000000000000000008152506040518060400160405280601581526020017f7777772e68656c70616765696e6469612e6f72672f0000000000000000000000815250620002e160201b60201c565b620001df60056040518060400160405280601181526020017f536967687453617665727320496e6469610000000000000000000000000000008152506040518060400160405280601781526020017f7777772e7369676874736176657273696e6469612e696e000000000000000000815250620002e160201b60201c565b6200025d60076040518060400160405280601581526020017f4769766520496e64696120466f756e646174696f6e00000000000000000000008152506040518060400160405280601181526020017f7777772e67697665696e6469612e6f7267000000000000000000000000000000815250620002e160201b60201c565b620002db60056040518060400160405280600a81526020017f4361726520496e646961000000000000000000000000000000000000000000008152506040518060400160405280601181526020017f7777772e63617265696e6469612e6f7267000000000000000000000000000000815250620002e160201b60201c565b6200069e565b600082511162000328576040517f08c379a00000000000000000000000000000000000000000000000000000000081526004016200031f9062000590565b60405180910390fd5b600083116200033657600080fd5b6040518060e0016040528060015481526020018281526020018381526020013373ffffffffffffffffffffffffffffffffffffffff1681526020018481526020016000815260200160001515815250600260006001548152602001908152602001600020600082015181600001556020820151816001019080519060200190620003c29291906200047f565b506040820151816002019080519060200190620003e19291906200047f565b5060608201518160030160006101000a81548173ffffffffffffffffffffffffffffffffffffffff021916908373ffffffffffffffffffffffffffffffffffffffff1602179055506080820151816004015560a0820151816005015560c08201518160060160006101000a81548160ff021916908315150217905550905050600160008154809291906200047590620005eb565b9190505550505050565b8280546200048d9062000668565b90600052602060002090601f016020900481019282620004b15760008555620004fd565b82601f10620004cc57805160ff1916838001178555620004fd565b82800160010185558215620004fd579182015b82811115620004fc578251825591602001919060010190620004df565b5b5090506200050c919062000510565b5090565b5b808211156200052b57600081600090555060010162000511565b5090565b600082825260208201905092915050565b7f456e7465722061206e616d650000000000000000000000000000000000000000600082015250565b600062000578600c836200052f565b9150620005858262000540565b602082019050919050565b60006020820190508181036000830152620005ab8162000569565b9050919050565b7f4e487b7100000000000000000000000000000000000000000000000000000000600052601160045260246000fd5b6000819050919050565b6000620005f882620005e1565b91507fffffffffffffffffffffffffffffffffffffffffffffffffffffffffffffffff8214156200062e576200062d620005b2565b5b600182019050919050565b7f4e487b7100000000000000000000000000000000000000000000000000000000600052602260045260246000fd5b600060028204905060018216806200068157607f821691505b6020821081141562000698576200069762000639565b5b50919050565b6112e580620006ae6000396000f3fe6080604052600436106100705760003560e01c80631ab2cf211161004e5780631ab2cf21146101085780635a4463a8146101335780639b24b5d31461015c578063f14faf6f1461019f57610070565b806306fdde03146100755780630ad2b739146100a0578063146af82b146100dd575b600080fd5b34801561008157600080fd5b5061008a6101bb565b6040516100979190610c1c565b60405180910390f35b3480156100ac57600080fd5b506100c760048036038101906100c29190610c88565b610249565b6040516100d49190610e0d565b60405180910390f35b3480156100e957600080fd5b506100f261042f565b6040516100ff9190610e3e565b60405180910390f35b34801561011457600080fd5b5061011d610439565b60405161012a9190610e3e565b60405180910390f35b34801561013f57600080fd5b5061015a60048036038101906101559190610f8e565b61043f565b005b34801561016857600080fd5b50610183600480360381019061017e9190610c88565b6105d3565b6040516101969796959493929190611037565b60405180910390f35b6101b960048036038101906101b49190610c88565b610752565b005b600080546101c8906110e3565b80601f01602080910402602001604051908101604052809291908181526020018280546101f4906110e3565b80156102415780601f1061021657610100808354040283529160200191610241565b820191906000526020600020905b81548152906001019060200180831161022457829003601f168201915b505050505081565b610251610a8b565b6000600260008481526020019081526020016000206040518060e00160405290816000820154815260200160018201805461028b906110e3565b80601f01602080910402602001604051908101604052809291908181526020018280546102b7906110e3565b80156103045780601f106102d957610100808354040283529160200191610304565b820191906000526020600020905b8154815290600101906020018083116102e757829003601f168201915b5050505050815260200160028201805461031d906110e3565b80601f0160208091040260200160405190810160405280929190818152602001828054610349906110e3565b80156103965780601f1061036b57610100808354040283529160200191610396565b820191906000526020600020905b81548152906001019060200180831161037957829003601f168201915b505050505081526020016003820160009054906101000a900473ffffffffffffffffffffffffffffffffffffffff1673ffffffffffffffffffffffffffffffffffffffff1673ffffffffffffffffffffffffffffffffffffffff16815260200160048201548152602001600582015481526020016006820160009054906101000a900460ff161515151581525050905080915050919050565b6000600154905090565b60015481565b6000825111610483576040517f08c379a000000000000000000000000000000000000000000000000000000000815260040161047a90611161565b60405180910390fd5b6000831161049057600080fd5b6040518060e0016040528060015481526020018281526020018381526020013373ffffffffffffffffffffffffffffffffffffffff168152602001848152602001600081526020016000151581525060026000600154815260200190815260200160002060008201518160000155602082015181600101908051906020019061051a929190610ae0565b506040820151816002019080519060200190610537929190610ae0565b5060608201518160030160006101000a81548173ffffffffffffffffffffffffffffffffffffffff021916908373ffffffffffffffffffffffffffffffffffffffff1602179055506080820151816004015560a0820151816005015560c08201518160060160006101000a81548160ff021916908315150217905550905050600160008154809291906105c9906111b0565b9190505550505050565b60026020528060005260406000206000915090508060000154908060010180546105fc906110e3565b80601f0160208091040260200160405190810160405280929190818152602001828054610628906110e3565b80156106755780601f1061064a57610100808354040283529160200191610675565b820191906000526020600020905b81548152906001019060200180831161065857829003601f168201915b50505050509080600201805461068a906110e3565b80601f01602080910402602001604051908101604052809291908181526020018280546106b6906110e3565b80156107035780601f106106d857610100808354040283529160200191610703565b820191906000526020600020905b8154815290600101906020018083116106e657829003601f168201915b5050505050908060030160009054906101000a900473ffffffffffffffffffffffffffffffffffffffff16908060040154908060050154908060060160009054906101000a900460ff16905087565b6000600260008381526020019081526020016000206040518060e00160405290816000820154815260200160018201805461078c906110e3565b80601f01602080910402602001604051908101604052809291908181526020018280546107b8906110e3565b80156108055780601f106107da57610100808354040283529160200191610805565b820191906000526020600020905b8154815290600101906020018083116107e857829003601f168201915b5050505050815260200160028201805461081e906110e3565b80601f016020809104026020016040519081016040528092919081815260200182805461084a906110e3565b80156108975780601f1061086c57610100808354040283529160200191610897565b820191906000526020600020905b81548152906001019060200180831161087a57829003601f168201915b505050505081526020016003820160009054906101000a900473ffffffffffffffffffffffffffffffffffffffff1673ffffffffffffffffffffffffffffffffffffffff1673ffffffffffffffffffffffffffffffffffffffff16815260200160048201548152602001600582015481526020016006820160009054906101000a900460ff16151515158152505090506000341161093457600080fd5b600081606001519050670de0b6b3a7640000346109519190611228565b8260a0018181516109629190611259565b9150818152505081600260008581526020019081526020016000206000820151816000015560208201518160010190805190602001906109a3929190610ae0565b5060408201518160020190805190602001906109c0929190610ae0565b5060608201518160030160006101000a81548173ffffffffffffffffffffffffffffffffffffffff021916908373ffffffffffffffffffffffffffffffffffffffff1602179055506080820151816004015560a0820151816005015560c08201518160060160006101000a81548160ff0219169083151502179055509050508073ffffffffffffffffffffffffffffffffffffffff166108fc349081150290604051600060405180830381858888f19350505050158015610a85573d6000803e3d6000fd5b50505050565b6040518060e00160405280600081526020016060815260200160608152602001600073ffffffffffffffffffffffffffffffffffffffff16815260200160008152602001600081526020016000151581525090565b828054610aec906110e3565b90600052602060002090601f016020900481019282610b0e5760008555610b55565b82601f10610b2757805160ff1916838001178555610b55565b82800160010185558215610b55579182015b82811115610b54578251825591602001919060010190610b39565b5b509050610b629190610b66565b5090565b5b80821115610b7f576000816000905550600101610b67565b5090565b600081519050919050565b600082825260208201905092915050565b60005b83811015610bbd578082015181840152602081019050610ba2565b83811115610bcc576000848401525b50505050565b6000601f19601f8301169050919050565b6000610bee82610b83565b610bf88185610b8e565b9350610c08818560208601610b9f565b610c1181610bd2565b840191505092915050565b60006020820190508181036000830152610c368184610be3565b905092915050565b6000604051905090565b600080fd5b600080fd5b6000819050919050565b610c6581610c52565b8114610c7057600080fd5b50565b600081359050610c8281610c5c565b92915050565b600060208284031215610c9e57610c9d610c48565b5b6000610cac84828501610c73565b91505092915050565b610cbe81610c52565b82525050565b600082825260208201905092915050565b6000610ce082610b83565b610cea8185610cc4565b9350610cfa818560208601610b9f565b610d0381610bd2565b840191505092915050565b600073ffffffffffffffffffffffffffffffffffffffff82169050919050565b6000610d3982610d0e565b9050919050565b610d4981610d2e565b82525050565b60008115159050919050565b610d6481610d4f565b82525050565b600060e083016000830151610d826000860182610cb5565b5060208301518482036020860152610d9a8282610cd5565b91505060408301518482036040860152610db48282610cd5565b9150506060830151610dc96060860182610d40565b506080830151610ddc6080860182610cb5565b5060a0830151610def60a0860182610cb5565b5060c0830151610e0260c0860182610d5b565b508091505092915050565b60006020820190508181036000830152610e278184610d6a565b905092915050565b610e3881610c52565b82525050565b6000602082019050610e536000830184610e2f565b92915050565b600080fd5b600080fd5b7f4e487b7100000000000000000000000000000000000000000000000000000000600052604160045260246000fd5b610e9b82610bd2565b810181811067ffffffffffffffff82111715610eba57610eb9610e63565b5b80604052505050565b6000610ecd610c3e565b9050610ed98282610e92565b919050565b600067ffffffffffffffff821115610ef957610ef8610e63565b5b610f0282610bd2565b9050602081019050919050565b82818337600083830152505050565b6000610f31610f2c84610ede565b610ec3565b905082815260208101848484011115610f4d57610f4c610e5e565b5b610f58848285610f0f565b509392505050565b600082601f830112610f7557610f74610e59565b5b8135610f85848260208601610f1e565b91505092915050565b600080600060608486031215610fa757610fa6610c48565b5b6000610fb586828701610c73565b935050602084013567ffffffffffffffff811115610fd657610fd5610c4d565b5b610fe286828701610f60565b925050604084013567ffffffffffffffff81111561100357611002610c4d565b5b61100f86828701610f60565b9150509250925092565b61102281610d2e565b82525050565b61103181610d4f565b82525050565b600060e08201905061104c600083018a610e2f565b818103602083015261105e8189610be3565b905081810360408301526110728188610be3565b90506110816060830187611019565b61108e6080830186610e2f565b61109b60a0830185610e2f565b6110a860c0830184611028565b98975050505050505050565b7f4e487b7100000000000000000000000000000000000000000000000000000000600052602260045260246000fd5b600060028204905060018216806110fb57607f821691505b6020821081141561110f5761110e6110b4565b5b50919050565b7f456e7465722061206e616d650000000000000000000000000000000000000000600082015250565b600061114b600c83610b8e565b915061115682611115565b602082019050919050565b6000602082019050818103600083015261117a8161113e565b9050919050565b7f4e487b7100000000000000000000000000000000000000000000000000000000600052601160045260246000fd5b60006111bb82610c52565b91507fffffffffffffffffffffffffffffffffffffffffffffffffffffffffffffffff8214156111ee576111ed611181565b5b600182019050919050565b7f4e487b7100000000000000000000000000000000000000000000000000000000600052601260045260246000fd5b600061123382610c52565b915061123e83610c52565b92508261124e5761124d6111f9565b5b828204905092915050565b600061126482610c52565b915061126f83610c52565b9250827fffffffffffffffffffffffffffffffffffffffffffffffffffffffffffffffff038211156112a4576112a3611181565b5b82820190509291505056fea2646970667358221220d9b0ef48df42c7e98268755e7068827195723684a7fc07f8b61656e09dc186d164736f6c634300080b0033",
  "immutableReferences": {},
  "source": "pragma solidity ^0.8.11;\r\n\r\ncontract work {\r\n\r\n    string public name;\r\n    constructor(){\r\n        name = \"abhishek's project\";\r\n\r\n\r\n        create(7,\"Pratham NGO\",\"www.pratham.org\");\r\n        create(10, \"HelpAge\",\"www.helpageindia.org/\");\r\n        create(5,\"SightSavers India\",\"www.sightsaversindia.in\");\r\n        create(7,\"Give India Foundation\",\"www.giveindia.org\");\r\n        create(5,\"Care India\",\"www.careindia.org\");\r\n\r\n    }\r\n\r\n    uint public pcount = 0;\r\n    \r\n    struct ngo{\r\n        uint id;\r\n        string web;\r\n        string ngoname;\r\n        address owner;\r\n        uint amount;\r\n        uint donated;\r\n        bool donation;\r\n    }\r\n\r\n\r\n    mapping(uint=>ngo) public ngolist;\r\n\r\n    function create(uint _amount,string memory _name, string memory _web) public {\r\n        \r\n        require(bytes(_name).length > 0,'Enter a name');\r\n        require(_amount >0);\r\n\r\n        ngolist[pcount] = ngo(pcount,_web,_name,msg.sender,_amount,0,false);\r\n        pcount++;\r\n    }\r\n\r\n    function getcount() public view returns(uint){\r\n        return pcount;\r\n    }\r\n\r\n    function getdata(uint _id) public view returns (ngo memory){\r\n        ngo memory cur = ngolist[_id];\r\n\r\n        return (cur);\r\n    }\r\n\r\n\r\n\r\n    function donate(uint _id) public payable{\r\n        ngo memory _new = ngolist[_id];\r\n        \r\n        require(msg.value > 0);\r\n\r\n        address _ngo = _new.owner;\r\n\r\n        _new.donated += (msg.value/(1 ether));\r\n        \r\n        \r\n        ngolist[_id] = _new;\r\n\r\n        payable(address(_ngo)).transfer(msg.value);\r\n\r\n    }\r\n\r\n}",
  "sourcePath": "D:\\projects\\temp2\\Web3 Donation App\\contracts\\work.sol",
  "compiler": {
    "name": "solc",
    "version": "0.8.11+commit.d7f03943.Emscripten.clang"
  },
  "schemaVersion": "3.4.8",
  "updatedAt": "2022-08-28T09:24:02.322Z",
  "networkType": "ethereum",
  "devdoc": {
    "kind": "dev",
    "methods": {},
    "version": 1
  },
  "userdoc": {
    "kind": "user",
    "methods": {},
    "version": 1
  }
}